{
  "_format": "hh-sol-artifact-1",
  "contractName": "NFTMarketplace",
  "sourceName": "contracts/NFTMarket.sol",
  "abi": [
    {
      "inputs": [],
      "stateMutability": "nonpayable",
      "type": "constructor"
    },
    {
      "anonymous": false,
      "inputs": [
        {
          "indexed": true,
          "internalType": "address",
          "name": "owner",
          "type": "address"
        },
        {
          "indexed": true,
          "internalType": "address",
          "name": "approved",
          "type": "address"
        },
        {
          "indexed": true,
          "internalType": "uint256",
          "name": "tokenId",
          "type": "uint256"
        }
      ],
      "name": "Approval",
      "type": "event"
    },
    {
      "anonymous": false,
      "inputs": [
        {
          "indexed": true,
          "internalType": "address",
          "name": "owner",
          "type": "address"
        },
        {
          "indexed": true,
          "internalType": "address",
          "name": "operator",
          "type": "address"
        },
        {
          "indexed": false,
          "internalType": "bool",
          "name": "approved",
          "type": "bool"
        }
      ],
      "name": "ApprovalForAll",
      "type": "event"
    },
    {
      "anonymous": false,
      "inputs": [
        {
          "indexed": true,
          "internalType": "uint256",
          "name": "tokenId",
          "type": "uint256"
        },
        {
          "indexed": false,
          "internalType": "address",
          "name": "seller",
          "type": "address"
        },
        {
          "indexed": false,
          "internalType": "address",
          "name": "owner",
          "type": "address"
        },
        {
          "indexed": false,
          "internalType": "uint256",
          "name": "price",
          "type": "uint256"
        },
        {
          "indexed": false,
          "internalType": "bool",
          "name": "sold",
          "type": "bool"
        }
      ],
      "name": "MarketItemCreated",
      "type": "event"
    },
    {
      "anonymous": false,
      "inputs": [
        {
          "indexed": false,
          "internalType": "address",
          "name": "creator",
          "type": "address"
        },
        {
          "indexed": false,
          "internalType": "uint256",
          "name": "pre_price",
          "type": "uint256"
        },
        {
          "indexed": false,
          "internalType": "uint256",
          "name": "royalty_earned",
          "type": "uint256"
        }
      ],
      "name": "MarketItem_for_RoyaltyCreated",
      "type": "event"
    },
    {
      "anonymous": false,
      "inputs": [
        {
          "indexed": true,
          "internalType": "address",
          "name": "from",
          "type": "address"
        },
        {
          "indexed": true,
          "internalType": "address",
          "name": "to",
          "type": "address"
        },
        {
          "indexed": true,
          "internalType": "uint256",
          "name": "tokenId",
          "type": "uint256"
        }
      ],
      "name": "Transfer",
      "type": "event"
    },
    {
      "inputs": [
        {
          "internalType": "address",
          "name": "to",
          "type": "address"
        },
        {
          "internalType": "uint256",
          "name": "tokenId",
          "type": "uint256"
        }
      ],
      "name": "approve",
      "outputs": [],
      "stateMutability": "nonpayable",
      "type": "function"
    },
    {
      "inputs": [
        {
          "internalType": "address",
          "name": "owner",
          "type": "address"
        }
      ],
      "name": "balanceOf",
      "outputs": [
        {
          "internalType": "uint256",
          "name": "",
          "type": "uint256"
        }
      ],
      "stateMutability": "view",
      "type": "function"
    },
    {
      "inputs": [
        {
          "internalType": "uint256",
          "name": "tokenId",
          "type": "uint256"
        }
      ],
      "name": "createMarketSale",
      "outputs": [],
      "stateMutability": "payable",
      "type": "function"
    },
    {
      "inputs": [
        {
          "internalType": "string",
          "name": "tokenURI",
          "type": "string"
        },
        {
          "internalType": "uint256",
          "name": "price",
          "type": "uint256"
        }
      ],
      "name": "createToken",
      "outputs": [
        {
          "internalType": "uint256",
          "name": "",
          "type": "uint256"
        }
      ],
      "stateMutability": "payable",
      "type": "function"
    },
    {
      "inputs": [],
      "name": "fetchItemsListed",
      "outputs": [
        {
          "components": [
            {
              "internalType": "uint256",
              "name": "tokenId",
              "type": "uint256"
            },
            {
              "internalType": "address payable",
              "name": "seller",
              "type": "address"
            },
            {
              "internalType": "address payable",
              "name": "owner",
              "type": "address"
            },
            {
              "internalType": "uint256",
              "name": "price",
              "type": "uint256"
            },
            {
              "internalType": "bool",
              "name": "sold",
              "type": "bool"
            }
          ],
          "internalType": "struct NFTMarketplace.MarketItem[]",
          "name": "",
          "type": "tuple[]"
        }
      ],
      "stateMutability": "view",
      "type": "function"
    },
    {
      "inputs": [],
      "name": "fetchMarketItems",
      "outputs": [
        {
          "components": [
            {
              "internalType": "uint256",
              "name": "tokenId",
              "type": "uint256"
            },
            {
              "internalType": "address payable",
              "name": "seller",
              "type": "address"
            },
            {
              "internalType": "address payable",
              "name": "owner",
              "type": "address"
            },
            {
              "internalType": "uint256",
              "name": "price",
              "type": "uint256"
            },
            {
              "internalType": "bool",
              "name": "sold",
              "type": "bool"
            }
          ],
          "internalType": "struct NFTMarketplace.MarketItem[]",
          "name": "",
          "type": "tuple[]"
        }
      ],
      "stateMutability": "view",
      "type": "function"
    },
    {
      "inputs": [],
      "name": "fetchMyNFTs",
      "outputs": [
        {
          "components": [
            {
              "internalType": "uint256",
              "name": "tokenId",
              "type": "uint256"
            },
            {
              "internalType": "address payable",
              "name": "seller",
              "type": "address"
            },
            {
              "internalType": "address payable",
              "name": "owner",
              "type": "address"
            },
            {
              "internalType": "uint256",
              "name": "price",
              "type": "uint256"
            },
            {
              "internalType": "bool",
              "name": "sold",
              "type": "bool"
            }
          ],
          "internalType": "struct NFTMarketplace.MarketItem[]",
          "name": "",
          "type": "tuple[]"
        }
      ],
      "stateMutability": "view",
      "type": "function"
    },
    {
      "inputs": [
        {
          "internalType": "uint256",
          "name": "tokenId",
          "type": "uint256"
        }
      ],
      "name": "getApproved",
      "outputs": [
        {
          "internalType": "address",
          "name": "",
          "type": "address"
        }
      ],
      "stateMutability": "view",
      "type": "function"
    },
    {
      "inputs": [],
      "name": "getListingPrice",
      "outputs": [
        {
          "internalType": "uint256",
          "name": "",
          "type": "uint256"
        }
      ],
      "stateMutability": "view",
      "type": "function"
    },
    {
      "inputs": [
        {
          "internalType": "address",
          "name": "owner",
          "type": "address"
        },
        {
          "internalType": "address",
          "name": "operator",
          "type": "address"
        }
      ],
      "name": "isApprovedForAll",
      "outputs": [
        {
          "internalType": "bool",
          "name": "",
          "type": "bool"
        }
      ],
      "stateMutability": "view",
      "type": "function"
    },
    {
      "inputs": [],
      "name": "name",
      "outputs": [
        {
          "internalType": "string",
          "name": "",
          "type": "string"
        }
      ],
      "stateMutability": "view",
      "type": "function"
    },
    {
      "inputs": [
        {
          "internalType": "uint256",
          "name": "tokenId",
          "type": "uint256"
        }
      ],
      "name": "nullifyToken",
      "outputs": [],
      "stateMutability": "nonpayable",
      "type": "function"
    },
    {
      "inputs": [
        {
          "internalType": "uint256",
          "name": "tokenId",
          "type": "uint256"
        }
      ],
      "name": "ownerOf",
      "outputs": [
        {
          "internalType": "address",
          "name": "",
          "type": "address"
        }
      ],
      "stateMutability": "view",
      "type": "function"
    },
    {
      "inputs": [
        {
          "internalType": "uint256",
          "name": "tokenId",
          "type": "uint256"
        },
        {
          "internalType": "uint256",
          "name": "price",
          "type": "uint256"
        }
      ],
      "name": "resellToken",
      "outputs": [],
      "stateMutability": "payable",
      "type": "function"
    },
    {
      "inputs": [
        {
          "internalType": "address",
          "name": "from",
          "type": "address"
        },
        {
          "internalType": "address",
          "name": "to",
          "type": "address"
        },
        {
          "internalType": "uint256",
          "name": "tokenId",
          "type": "uint256"
        }
      ],
      "name": "safeTransferFrom",
      "outputs": [],
      "stateMutability": "nonpayable",
      "type": "function"
    },
    {
      "inputs": [
        {
          "internalType": "address",
          "name": "from",
          "type": "address"
        },
        {
          "internalType": "address",
          "name": "to",
          "type": "address"
        },
        {
          "internalType": "uint256",
          "name": "tokenId",
          "type": "uint256"
        },
        {
          "internalType": "bytes",
          "name": "_data",
          "type": "bytes"
        }
      ],
      "name": "safeTransferFrom",
      "outputs": [],
      "stateMutability": "nonpayable",
      "type": "function"
    },
    {
      "inputs": [
        {
          "internalType": "address",
          "name": "operator",
          "type": "address"
        },
        {
          "internalType": "bool",
          "name": "approved",
          "type": "bool"
        }
      ],
      "name": "setApprovalForAll",
      "outputs": [],
      "stateMutability": "nonpayable",
      "type": "function"
    },
    {
      "inputs": [
        {
          "internalType": "bytes4",
          "name": "interfaceId",
          "type": "bytes4"
        }
      ],
      "name": "supportsInterface",
      "outputs": [
        {
          "internalType": "bool",
          "name": "",
          "type": "bool"
        }
      ],
      "stateMutability": "view",
      "type": "function"
    },
    {
      "inputs": [],
      "name": "symbol",
      "outputs": [
        {
          "internalType": "string",
          "name": "",
          "type": "string"
        }
      ],
      "stateMutability": "view",
      "type": "function"
    },
    {
      "inputs": [
        {
          "internalType": "uint256",
          "name": "tokenId",
          "type": "uint256"
        }
      ],
      "name": "tokenURI",
      "outputs": [
        {
          "internalType": "string",
          "name": "",
          "type": "string"
        }
      ],
      "stateMutability": "view",
      "type": "function"
    },
    {
      "inputs": [
        {
          "internalType": "address",
          "name": "from",
          "type": "address"
        },
        {
          "internalType": "address",
          "name": "to",
          "type": "address"
        },
        {
          "internalType": "uint256",
          "name": "tokenId",
          "type": "uint256"
        }
      ],
      "name": "transferFrom",
      "outputs": [],
      "stateMutability": "nonpayable",
      "type": "function"
    },
    {
      "inputs": [
        {
          "internalType": "uint256",
          "name": "_listingPrice",
          "type": "uint256"
        }
      ],
      "name": "updateListingPrice",
      "outputs": [],
      "stateMutability": "payable",
      "type": "function"
    }
  ],
  "bytecode": "0x60806040526658d15e176280006009553480156200001c57600080fd5b506040518060400160405280601481526020017f52757368616e6b204d61726b657420506c6163650000000000000000000000008152506040518060400160405280600381526020017f524d5000000000000000000000000000000000000000000000000000000000008152508160009080519060200190620000a192919062000104565b508060019080519060200190620000ba92919062000104565b50505033600a60006101000a81548173ffffffffffffffffffffffffffffffffffffffff021916908373ffffffffffffffffffffffffffffffffffffffff16021790555062000219565b8280546200011290620001b4565b90600052602060002090601f01602090048101928262000136576000855562000182565b82601f106200015157805160ff191683800117855562000182565b8280016001018555821562000182579182015b828111156200018157825182559160200191906001019062000164565b5b50905062000191919062000195565b5090565b5b80821115620001b057600081600090555060010162000196565b5090565b60006002820490506001821680620001cd57607f821691505b60208210811415620001e457620001e3620001ea565b5b50919050565b7f4e487b7100000000000000000000000000000000000000000000000000000000600052602260045260246000fd5b61499580620002296000396000f3fe6080604052600436106101355760003560e01c806370a08231116100ab578063b88d4fde1161006f578063b88d4fde14610420578063be9af53614610449578063c87b56dd14610465578063e219fc75146104a2578063e985e9c5146104be578063efda7abd146104fb57610135565b806370a082311461034357806372b3b6201461038057806395d89b41146103b0578063a22cb465146103db578063ae677aa31461040457610135565b806312e85585116100fd57806312e8558514610233578063202e37401461025e57806323b872dd1461028957806342842e0e146102b257806345f8fa80146102db5780636352211e1461030657610135565b806301ffc9a71461013a57806306fdde0314610177578063081812fc146101a2578063095ea7b3146101df5780630f08efe014610208575b600080fd5b34801561014657600080fd5b50610161600480360381019061015c91906131f2565b610524565b60405161016e9190613935565b60405180910390f35b34801561018357600080fd5b5061018c610606565b6040516101999190613950565b60405180910390f35b3480156101ae57600080fd5b506101c960048036038101906101c49190613298565b610698565b6040516101d69190613830565b60405180910390f35b3480156101eb57600080fd5b50610206600480360381019061020191906131b6565b61071d565b005b34801561021457600080fd5b5061021d610835565b60405161022a9190613913565b60405180910390f35b34801561023f57600080fd5b50610248610aea565b6040516102559190613c52565b60405180910390f35b34801561026a57600080fd5b50610273610af4565b6040516102809190613913565b60405180910390f35b34801561029557600080fd5b506102b060048036038101906102ab91906130b0565b610e2e565b005b3480156102be57600080fd5b506102d960048036038101906102d491906130b0565b610e8e565b005b3480156102e757600080fd5b506102f0610eae565b6040516102fd9190613913565b60405180910390f35b34801561031257600080fd5b5061032d60048036038101906103289190613298565b6111e8565b60405161033a9190613830565b60405180910390f35b34801561034f57600080fd5b5061036a6004803603810190610365919061304b565b61129a565b6040516103779190613c52565b60405180910390f35b61039a60048036038101906103959190613244565b611352565b6040516103a79190613c52565b60405180910390f35b3480156103bc57600080fd5b506103c5611394565b6040516103d29190613950565b60405180910390f35b3480156103e757600080fd5b5061040260048036038101906103fd919061317a565b611426565b005b61041e60048036038101906104199190613298565b61143c565b005b34801561042c57600080fd5b50610447600480360381019061044291906130ff565b6114d6565b005b610463600480360381019061045e9190613298565b611538565b005b34801561047157600080fd5b5061048c60048036038101906104879190613298565b6118cc565b6040516104999190613950565b60405180910390f35b6104bc60048036038101906104b791906132c1565b611a1e565b005b3480156104ca57600080fd5b506104e560048036038101906104e09190613074565b611c4a565b6040516104f29190613935565b60405180910390f35b34801561050757600080fd5b50610522600480360381019061051d9190613298565b611cde565b005b60007f80ac58cd000000000000000000000000000000000000000000000000000000007bffffffffffffffffffffffffffffffffffffffffffffffffffffffff1916827bffffffffffffffffffffffffffffffffffffffffffffffffffffffff191614806105ef57507f5b5e139f000000000000000000000000000000000000000000000000000000007bffffffffffffffffffffffffffffffffffffffffffffffffffffffff1916827bffffffffffffffffffffffffffffffffffffffffffffffffffffffff1916145b806105ff57506105fe82611d8d565b5b9050919050565b60606000805461061590614124565b80601f016020809104026020016040519081016040528092919081815260200182805461064190614124565b801561068e5780601f106106635761010080835404028352916020019161068e565b820191906000526020600020905b81548152906001019060200180831161067157829003601f168201915b5050505050905090565b60006106a382611df7565b6106e2576040517f08c379a00000000000000000000000000000000000000000000000000000000081526004016106d990613b72565b60405180910390fd5b6004600083815260200190815260200160002060009054906101000a900473ffffffffffffffffffffffffffffffffffffffff169050919050565b6000610728826111e8565b90508073ffffffffffffffffffffffffffffffffffffffff168373ffffffffffffffffffffffffffffffffffffffff161415610799576040517f08c379a000000000000000000000000000000000000000000000000000000000815260040161079090613bb2565b60405180910390fd5b8073ffffffffffffffffffffffffffffffffffffffff166107b8611e63565b73ffffffffffffffffffffffffffffffffffffffff1614806107e757506107e6816107e1611e63565b611c4a565b5b610826576040517f08c379a000000000000000000000000000000000000000000000000000000000815260040161081d90613a72565b60405180910390fd5b6108308383611e6b565b505050565b606060006108436007611f24565b905060006108516008611f24565b61085b6007611f24565b610865919061400c565b90506000808267ffffffffffffffff8111156108aa577f4e487b7100000000000000000000000000000000000000000000000000000000600052604160045260246000fd5b6040519080825280602002602001820160405280156108e357816020015b6108d0612e12565b8152602001906001900390816108c85790505b50905060005b84811015610adf573073ffffffffffffffffffffffffffffffffffffffff16600b60006001846109199190613d70565b815260200190815260200160002060020160009054906101000a900473ffffffffffffffffffffffffffffffffffffffff1673ffffffffffffffffffffffffffffffffffffffff161415610acc5760006001826109769190613d70565b90506000600b60008381526020019081526020016000209050806040518060a0016040529081600082015481526020016001820160009054906101000a900473ffffffffffffffffffffffffffffffffffffffff1673ffffffffffffffffffffffffffffffffffffffff1673ffffffffffffffffffffffffffffffffffffffff1681526020016002820160009054906101000a900473ffffffffffffffffffffffffffffffffffffffff1673ffffffffffffffffffffffffffffffffffffffff1673ffffffffffffffffffffffffffffffffffffffff168152602001600382015481526020016004820160009054906101000a900460ff161515151581525050848681518110610aaf577f4e487b7100000000000000000000000000000000000000000000000000000000600052603260045260246000fd5b6020026020010181905250600185610ac79190613d70565b945050505b8080610ad790614187565b9150506108e9565b508094505050505090565b6000600954905090565b60606000610b026007611f24565b905060008060005b83811015610bab573373ffffffffffffffffffffffffffffffffffffffff16600b6000600184610b3a9190613d70565b815260200190815260200160002060020160009054906101000a900473ffffffffffffffffffffffffffffffffffffffff1673ffffffffffffffffffffffffffffffffffffffff161415610b9857600183610b959190613d70565b92505b8080610ba390614187565b915050610b0a565b5060008267ffffffffffffffff811115610bee577f4e487b7100000000000000000000000000000000000000000000000000000000600052604160045260246000fd5b604051908082528060200260200182016040528015610c2757816020015b610c14612e12565b815260200190600190039081610c0c5790505b50905060005b84811015610e23573373ffffffffffffffffffffffffffffffffffffffff16600b6000600184610c5d9190613d70565b815260200190815260200160002060020160009054906101000a900473ffffffffffffffffffffffffffffffffffffffff1673ffffffffffffffffffffffffffffffffffffffff161415610e10576000600182610cba9190613d70565b90506000600b60008381526020019081526020016000209050806040518060a0016040529081600082015481526020016001820160009054906101000a900473ffffffffffffffffffffffffffffffffffffffff1673ffffffffffffffffffffffffffffffffffffffff1673ffffffffffffffffffffffffffffffffffffffff1681526020016002820160009054906101000a900473ffffffffffffffffffffffffffffffffffffffff1673ffffffffffffffffffffffffffffffffffffffff1673ffffffffffffffffffffffffffffffffffffffff168152602001600382015481526020016004820160009054906101000a900460ff161515151581525050848681518110610df3577f4e487b7100000000000000000000000000000000000000000000000000000000600052603260045260246000fd5b6020026020010181905250600185610e0b9190613d70565b945050505b8080610e1b90614187565b915050610c2d565b508094505050505090565b610e3f610e39611e63565b82611f32565b610e7e576040517f08c379a0000000000000000000000000000000000000000000000000000000008152600401610e7590613bf2565b60405180910390fd5b610e89838383612010565b505050565b610ea9838383604051806020016040528060008152506114d6565b505050565b60606000610ebc6007611f24565b905060008060005b83811015610f65573373ffffffffffffffffffffffffffffffffffffffff16600c6000600184610ef49190613d70565b815260200190815260200160002060000160009054906101000a900473ffffffffffffffffffffffffffffffffffffffff1673ffffffffffffffffffffffffffffffffffffffff161415610f5257600183610f4f9190613d70565b92505b8080610f5d90614187565b915050610ec4565b5060008267ffffffffffffffff811115610fa8577f4e487b7100000000000000000000000000000000000000000000000000000000600052604160045260246000fd5b604051908082528060200260200182016040528015610fe157816020015b610fce612e12565b815260200190600190039081610fc65790505b50905060005b848110156111dd573373ffffffffffffffffffffffffffffffffffffffff16600c60006001846110179190613d70565b815260200190815260200160002060000160009054906101000a900473ffffffffffffffffffffffffffffffffffffffff1673ffffffffffffffffffffffffffffffffffffffff1614156111ca5760006001826110749190613d70565b90506000600b60008381526020019081526020016000209050806040518060a0016040529081600082015481526020016001820160009054906101000a900473ffffffffffffffffffffffffffffffffffffffff1673ffffffffffffffffffffffffffffffffffffffff1673ffffffffffffffffffffffffffffffffffffffff1681526020016002820160009054906101000a900473ffffffffffffffffffffffffffffffffffffffff1673ffffffffffffffffffffffffffffffffffffffff1673ffffffffffffffffffffffffffffffffffffffff168152602001600382015481526020016004820160009054906101000a900460ff1615151515815250508486815181106111ad577f4e487b7100000000000000000000000000000000000000000000000000000000600052603260045260246000fd5b60200260200101819052506001856111c59190613d70565b945050505b80806111d590614187565b915050610fe7565b508094505050505090565b6000806002600084815260200190815260200160002060009054906101000a900473ffffffffffffffffffffffffffffffffffffffff169050600073ffffffffffffffffffffffffffffffffffffffff168173ffffffffffffffffffffffffffffffffffffffff161415611291576040517f08c379a000000000000000000000000000000000000000000000000000000000815260040161128890613ab2565b60405180910390fd5b80915050919050565b60008073ffffffffffffffffffffffffffffffffffffffff168273ffffffffffffffffffffffffffffffffffffffff16141561130b576040517f08c379a000000000000000000000000000000000000000000000000000000000815260040161130290613a92565b60405180910390fd5b600360008373ffffffffffffffffffffffffffffffffffffffff1673ffffffffffffffffffffffffffffffffffffffff168152602001908152602001600020549050919050565b600061135e6007612277565b600061136a6007611f24565b9050611376338261228d565b6113808185612467565b61138a81846124db565b8091505092915050565b6060600180546113a390614124565b80601f01602080910402602001604051908101604052809291908181526020018280546113cf90614124565b801561141c5780601f106113f15761010080835404028352916020019161141c565b820191906000526020600020905b8154815290600101906020018083116113ff57829003601f168201915b5050505050905090565b611438611431611e63565b83836127be565b5050565b3373ffffffffffffffffffffffffffffffffffffffff16600a60009054906101000a900473ffffffffffffffffffffffffffffffffffffffff1673ffffffffffffffffffffffffffffffffffffffff16146114cc576040517f08c379a00000000000000000000000000000000000000000000000000000000081526004016114c390613c12565b60405180910390fd5b8060098190555050565b6114e76114e1611e63565b83611f32565b611526576040517f08c379a000000000000000000000000000000000000000000000000000000000815260040161151d90613bf2565b60405180910390fd5b6115328484848461292b565b50505050565b6000600b60008381526020019081526020016000206003015490506000600b600084815260200190815260200160002060010160009054906101000a900473ffffffffffffffffffffffffffffffffffffffff1690506000600c60008581526020019081526020016000206001015490506000600c600086815260200190815260200160002060000160009054906101000a900473ffffffffffffffffffffffffffffffffffffffff16905060006064600284876115f69190613f78565b6116009190613e61565b61160a9190613dc6565b905084341461164e576040517f08c379a000000000000000000000000000000000000000000000000000000000815260040161164590613af2565b60405180910390fd5b33600b600088815260200190815260200160002060020160006101000a81548173ffffffffffffffffffffffffffffffffffffffff021916908373ffffffffffffffffffffffffffffffffffffffff1602179055506001600b600088815260200190815260200160002060040160006101000a81548160ff0219169083151502179055506000600b600088815260200190815260200160002060010160006101000a81548173ffffffffffffffffffffffffffffffffffffffff021916908373ffffffffffffffffffffffffffffffffffffffff1602179055506117326008612277565b61173d303388612010565b600a60009054906101000a900473ffffffffffffffffffffffffffffffffffffffff1673ffffffffffffffffffffffffffffffffffffffff166108fc6009549081150290604051600060405180830381858888f193505050501580156117a7573d6000803e3d6000fd5b50600081131561187c578373ffffffffffffffffffffffffffffffffffffffff166108fc82346117d7919061400c565b9081150290604051600060405180830381858888f19350505050158015611802573d6000803e3d6000fd5b508173ffffffffffffffffffffffffffffffffffffffff166108fc829081150290604051600060405180830381858888f19350505050158015611849573d6000803e3d6000fd5b5080600c600088815260200190815260200160002060020160008282546118709190613d70565b925050819055506118c4565b8373ffffffffffffffffffffffffffffffffffffffff166108fc349081150290604051600060405180830381858888f193505050501580156118c2573d6000803e3d6000fd5b505b505050505050565b60606118d782611df7565b611916576040517f08c379a000000000000000000000000000000000000000000000000000000000815260040161190d90613b32565b60405180910390fd5b600060066000848152602001908152602001600020805461193690614124565b80601f016020809104026020016040519081016040528092919081815260200182805461196290614124565b80156119af5780601f10611984576101008083540402835291602001916119af565b820191906000526020600020905b81548152906001019060200180831161199257829003601f168201915b5050505050905060006119c0612987565b90506000815114156119d6578192505050611a19565b600082511115611a0b5780826040516020016119f392919061380c565b60405160208183030381529060405292505050611a19565b611a148461299e565b925050505b919050565b3373ffffffffffffffffffffffffffffffffffffffff16600b600084815260200190815260200160002060020160009054906101000a900473ffffffffffffffffffffffffffffffffffffffff1673ffffffffffffffffffffffffffffffffffffffff1614611ac2576040517f08c379a0000000000000000000000000000000000000000000000000000000008152600401611ab990613b52565b60405180910390fd5b6009543414611b06576040517f08c379a0000000000000000000000000000000000000000000000000000000008152600401611afd90613bd2565b60405180910390fd5b6000600b60008481526020019081526020016000206003015490506000600b600085815260200190815260200160002060040160006101000a81548160ff02191690831515021790555081600b60008581526020019081526020016000206003018190555033600b600085815260200190815260200160002060010160006101000a81548173ffffffffffffffffffffffffffffffffffffffff021916908373ffffffffffffffffffffffffffffffffffffffff16021790555030600b600085815260200190815260200160002060020160006101000a81548173ffffffffffffffffffffffffffffffffffffffff021916908373ffffffffffffffffffffffffffffffffffffffff16021790555080600c600085815260200190815260200160002060010181905550611c3a6008612a45565b611c45333085612010565b505050565b6000600560008473ffffffffffffffffffffffffffffffffffffffff1673ffffffffffffffffffffffffffffffffffffffff16815260200190815260200160002060008373ffffffffffffffffffffffffffffffffffffffff1673ffffffffffffffffffffffffffffffffffffffff16815260200190815260200160002060009054906101000a900460ff16905092915050565b600a60009054906101000a900473ffffffffffffffffffffffffffffffffffffffff1673ffffffffffffffffffffffffffffffffffffffff163373ffffffffffffffffffffffffffffffffffffffff1614611d6e576040517f08c379a0000000000000000000000000000000000000000000000000000000008152600401611d6590613972565b60405180910390fd5b6000600b60008381526020019081526020016000206003018190555050565b60007f01ffc9a7000000000000000000000000000000000000000000000000000000007bffffffffffffffffffffffffffffffffffffffffffffffffffffffff1916827bffffffffffffffffffffffffffffffffffffffffffffffffffffffff1916149050919050565b60008073ffffffffffffffffffffffffffffffffffffffff166002600084815260200190815260200160002060009054906101000a900473ffffffffffffffffffffffffffffffffffffffff1673ffffffffffffffffffffffffffffffffffffffff1614159050919050565b600033905090565b816004600083815260200190815260200160002060006101000a81548173ffffffffffffffffffffffffffffffffffffffff021916908373ffffffffffffffffffffffffffffffffffffffff160217905550808273ffffffffffffffffffffffffffffffffffffffff16611ede836111e8565b73ffffffffffffffffffffffffffffffffffffffff167f8c5be1e5ebec7d5bd14f71427d1e84f3dd0314c0f7b2291e5b200ac8c7c3b92560405160405180910390a45050565b600081600001549050919050565b6000611f3d82611df7565b611f7c576040517f08c379a0000000000000000000000000000000000000000000000000000000008152600401611f7390613a52565b60405180910390fd5b6000611f87836111e8565b90508073ffffffffffffffffffffffffffffffffffffffff168473ffffffffffffffffffffffffffffffffffffffff161480611ff657508373ffffffffffffffffffffffffffffffffffffffff16611fde84610698565b73ffffffffffffffffffffffffffffffffffffffff16145b8061200757506120068185611c4a565b5b91505092915050565b8273ffffffffffffffffffffffffffffffffffffffff16612030826111e8565b73ffffffffffffffffffffffffffffffffffffffff1614612086576040517f08c379a000000000000000000000000000000000000000000000000000000000815260040161207d906139d2565b60405180910390fd5b600073ffffffffffffffffffffffffffffffffffffffff168273ffffffffffffffffffffffffffffffffffffffff1614156120f6576040517f08c379a00000000000000000000000000000000000000000000000000000000081526004016120ed90613a12565b60405180910390fd5b612101838383612aa1565b61210c600082611e6b565b6001600360008573ffffffffffffffffffffffffffffffffffffffff1673ffffffffffffffffffffffffffffffffffffffff168152602001908152602001600020600082825461215c919061400c565b925050819055506001600360008473ffffffffffffffffffffffffffffffffffffffff1673ffffffffffffffffffffffffffffffffffffffff16815260200190815260200160002060008282546121b39190613d70565b92505081905550816002600083815260200190815260200160002060006101000a81548173ffffffffffffffffffffffffffffffffffffffff021916908373ffffffffffffffffffffffffffffffffffffffff160217905550808273ffffffffffffffffffffffffffffffffffffffff168473ffffffffffffffffffffffffffffffffffffffff167fddf252ad1be2c89b69c2b068fc378daa952ba7f163c4a11628f55a4df523b3ef60405160405180910390a4612272838383612aa6565b505050565b6001816000016000828254019250508190555050565b600073ffffffffffffffffffffffffffffffffffffffff168273ffffffffffffffffffffffffffffffffffffffff1614156122fd576040517f08c379a00000000000000000000000000000000000000000000000000000000081526004016122f490613b12565b60405180910390fd5b61230681611df7565b15612346576040517f08c379a000000000000000000000000000000000000000000000000000000000815260040161233d906139f2565b60405180910390fd5b61235260008383612aa1565b6001600360008473ffffffffffffffffffffffffffffffffffffffff1673ffffffffffffffffffffffffffffffffffffffff16815260200190815260200160002060008282546123a29190613d70565b92505081905550816002600083815260200190815260200160002060006101000a81548173ffffffffffffffffffffffffffffffffffffffff021916908373ffffffffffffffffffffffffffffffffffffffff160217905550808273ffffffffffffffffffffffffffffffffffffffff16600073ffffffffffffffffffffffffffffffffffffffff167fddf252ad1be2c89b69c2b068fc378daa952ba7f163c4a11628f55a4df523b3ef60405160405180910390a461246360008383612aa6565b5050565b61247082611df7565b6124af576040517f08c379a00000000000000000000000000000000000000000000000000000000081526004016124a690613ad2565b60405180910390fd5b806006600084815260200190815260200160002090805190602001906124d6929190612e6f565b505050565b6000811161251e576040517f08c379a000000000000000000000000000000000000000000000000000000000815260040161251590613c32565b60405180910390fd5b6009543414612562576040517f08c379a000000000000000000000000000000000000000000000000000000000815260040161255990613bd2565b60405180910390fd5b6040518060a001604052808381526020013373ffffffffffffffffffffffffffffffffffffffff1681526020013073ffffffffffffffffffffffffffffffffffffffff16815260200182815260200160001515815250600b60008481526020019081526020016000206000820151816000015560208201518160010160006101000a81548173ffffffffffffffffffffffffffffffffffffffff021916908373ffffffffffffffffffffffffffffffffffffffff16021790555060408201518160020160006101000a81548173ffffffffffffffffffffffffffffffffffffffff021916908373ffffffffffffffffffffffffffffffffffffffff1602179055506060820151816003015560808201518160040160006101000a81548160ff02191690831515021790555090505060405180606001604052803373ffffffffffffffffffffffffffffffffffffffff168152602001600081526020016000815250600c600084815260200190815260200160002060008201518160000160006101000a81548173ffffffffffffffffffffffffffffffffffffffff021916908373ffffffffffffffffffffffffffffffffffffffff160217905550602082015181600101556040820151816002015590505061273f333084612010565b817fb640004f1d14576d0c209e240cad0410e0d8c0c33a09375861fbadae2588a98d3330846000604051612776949392919061384b565b60405180910390a27f08a1679ae971a1b1998da1fab7accc6b0a997d60027252e3d0cf30eabd5c73dc336000806040516127b2939291906138dc565b60405180910390a15050565b8173ffffffffffffffffffffffffffffffffffffffff168373ffffffffffffffffffffffffffffffffffffffff16141561282d576040517f08c379a000000000000000000000000000000000000000000000000000000000815260040161282490613a32565b60405180910390fd5b80600560008573ffffffffffffffffffffffffffffffffffffffff1673ffffffffffffffffffffffffffffffffffffffff16815260200190815260200160002060008473ffffffffffffffffffffffffffffffffffffffff1673ffffffffffffffffffffffffffffffffffffffff16815260200190815260200160002060006101000a81548160ff0219169083151502179055508173ffffffffffffffffffffffffffffffffffffffff168373ffffffffffffffffffffffffffffffffffffffff167f17307eab39ab6107e8899845ad3d59bd9653f200f220920489ca2b5937696c318360405161291e9190613935565b60405180910390a3505050565b612936848484612010565b61294284848484612aab565b612981576040517f08c379a0000000000000000000000000000000000000000000000000000000008152600401612978906139b2565b60405180910390fd5b50505050565b606060405180602001604052806000815250905090565b60606129a982611df7565b6129e8576040517f08c379a00000000000000000000000000000000000000000000000000000000081526004016129df90613b92565b60405180910390fd5b60006129f2612987565b90506000815111612a125760405180602001604052806000815250612a3d565b80612a1c84612c42565b604051602001612a2d92919061380c565b6040516020818303038152906040525b915050919050565b60008160000154905060008111612a91576040517f08c379a0000000000000000000000000000000000000000000000000000000008152600401612a8890613992565b60405180910390fd5b6001810382600001819055505050565b505050565b505050565b6000612acc8473ffffffffffffffffffffffffffffffffffffffff16612def565b15612c35578373ffffffffffffffffffffffffffffffffffffffff1663150b7a02612af5611e63565b8786866040518563ffffffff1660e01b8152600401612b179493929190613890565b602060405180830381600087803b158015612b3157600080fd5b505af1925050508015612b6257506040513d601f19601f82011682018060405250810190612b5f919061321b565b60015b612be5573d8060008114612b92576040519150601f19603f3d011682016040523d82523d6000602084013e612b97565b606091505b50600081511415612bdd576040517f08c379a0000000000000000000000000000000000000000000000000000000008152600401612bd4906139b2565b60405180910390fd5b805181602001fd5b63150b7a0260e01b7bffffffffffffffffffffffffffffffffffffffffffffffffffffffff1916817bffffffffffffffffffffffffffffffffffffffffffffffffffffffff191614915050612c3a565b600190505b949350505050565b60606000821415612c8a576040518060400160405280600181526020017f30000000000000000000000000000000000000000000000000000000000000008152509050612dea565b600082905060005b60008214612cbc578080612ca590614187565b915050600a82612cb59190613e30565b9150612c92565b60008167ffffffffffffffff811115612cfe577f4e487b7100000000000000000000000000000000000000000000000000000000600052604160045260246000fd5b6040519080825280601f01601f191660200182016040528015612d305781602001600182028036833780820191505090505b5090505b60008514612de357600182612d49919061400c565b9150600a85612d5891906141d0565b6030612d649190613d70565b60f81b818381518110612da0577f4e487b7100000000000000000000000000000000000000000000000000000000600052603260045260246000fd5b60200101907effffffffffffffffffffffffffffffffffffffffffffffffffffffffffffff1916908160001a905350600a85612ddc9190613e30565b9450612d34565b8093505050505b919050565b6000808273ffffffffffffffffffffffffffffffffffffffff163b119050919050565b6040518060a0016040528060008152602001600073ffffffffffffffffffffffffffffffffffffffff168152602001600073ffffffffffffffffffffffffffffffffffffffff168152602001600081526020016000151581525090565b828054612e7b90614124565b90600052602060002090601f016020900481019282612e9d5760008555612ee4565b82601f10612eb657805160ff1916838001178555612ee4565b82800160010185558215612ee4579182015b82811115612ee3578251825591602001919060010190612ec8565b5b509050612ef19190612ef5565b5090565b5b80821115612f0e576000816000905550600101612ef6565b5090565b6000612f25612f2084613c92565b613c6d565b905082815260208101848484011115612f3d57600080fd5b612f488482856140e2565b509392505050565b6000612f63612f5e84613cc3565b613c6d565b905082815260208101848484011115612f7b57600080fd5b612f868482856140e2565b509392505050565b600081359050612f9d81614903565b92915050565b600081359050612fb28161491a565b92915050565b600081359050612fc781614931565b92915050565b600081519050612fdc81614931565b92915050565b600082601f830112612ff357600080fd5b8135613003848260208601612f12565b91505092915050565b600082601f83011261301d57600080fd5b813561302d848260208601612f50565b91505092915050565b60008135905061304581614948565b92915050565b60006020828403121561305d57600080fd5b600061306b84828501612f8e565b91505092915050565b6000806040838503121561308757600080fd5b600061309585828601612f8e565b92505060206130a685828601612f8e565b9150509250929050565b6000806000606084860312156130c557600080fd5b60006130d386828701612f8e565b93505060206130e486828701612f8e565b92505060406130f586828701613036565b9150509250925092565b6000806000806080858703121561311557600080fd5b600061312387828801612f8e565b945050602061313487828801612f8e565b935050604061314587828801613036565b925050606085013567ffffffffffffffff81111561316257600080fd5b61316e87828801612fe2565b91505092959194509250565b6000806040838503121561318d57600080fd5b600061319b85828601612f8e565b92505060206131ac85828601612fa3565b9150509250929050565b600080604083850312156131c957600080fd5b60006131d785828601612f8e565b92505060206131e885828601613036565b9150509250929050565b60006020828403121561320457600080fd5b600061321284828501612fb8565b91505092915050565b60006020828403121561322d57600080fd5b600061323b84828501612fcd565b91505092915050565b6000806040838503121561325757600080fd5b600083013567ffffffffffffffff81111561327157600080fd5b61327d8582860161300c565b925050602061328e85828601613036565b9150509250929050565b6000602082840312156132aa57600080fd5b60006132b884828501613036565b91505092915050565b600080604083850312156132d457600080fd5b60006132e285828601613036565b92505060206132f385828601613036565b9150509250929050565b60006133098383613786565b60a08301905092915050565b61331e81614052565b82525050565b61332d81614040565b82525050565b600061333e82613d04565b6133488185613d32565b935061335383613cf4565b8060005b8381101561338457815161336b88826132fd565b975061337683613d25565b925050600181019050613357565b5085935050505092915050565b61339a81614064565b82525050565b6133a981614064565b82525050565b60006133ba82613d0f565b6133c48185613d43565b93506133d48185602086016140f1565b6133dd816142bd565b840191505092915050565b6133f1816140d0565b82525050565b600061340282613d1a565b61340c8185613d54565b935061341c8185602086016140f1565b613425816142bd565b840191505092915050565b600061343b82613d1a565b6134458185613d65565b93506134558185602086016140f1565b80840191505092915050565b600061346e601583613d54565b9150613479826142ce565b602082019050919050565b6000613491601b83613d54565b915061349c826142f7565b602082019050919050565b60006134b4603283613d54565b91506134bf82614320565b604082019050919050565b60006134d7602583613d54565b91506134e28261436f565b604082019050919050565b60006134fa601c83613d54565b9150613505826143be565b602082019050919050565b600061351d602483613d54565b9150613528826143e7565b604082019050919050565b6000613540601983613d54565b915061354b82614436565b602082019050919050565b6000613563602c83613d54565b915061356e8261445f565b604082019050919050565b6000613586603883613d54565b9150613591826144ae565b604082019050919050565b60006135a9602a83613d54565b91506135b4826144fd565b604082019050919050565b60006135cc602983613d54565b91506135d78261454c565b604082019050919050565b60006135ef602e83613d54565b91506135fa8261459b565b604082019050919050565b6000613612604083613d54565b915061361d826145ea565b604082019050919050565b6000613635602083613d54565b915061364082614639565b602082019050919050565b6000613658603183613d54565b915061366382614662565b604082019050919050565b600061367b602a83613d54565b9150613686826146b1565b604082019050919050565b600061369e602c83613d54565b91506136a982614700565b604082019050919050565b60006136c1602f83613d54565b91506136cc8261474f565b604082019050919050565b60006136e4602183613d54565b91506136ef8261479e565b604082019050919050565b6000613707602483613d54565b9150613712826147ed565b604082019050919050565b600061372a603183613d54565b91506137358261483c565b604082019050919050565b600061374d603083613d54565b91506137588261488b565b604082019050919050565b6000613770601c83613d54565b915061377b826148da565b602082019050919050565b60a08201600082015161379c60008501826137ee565b5060208201516137af6020850182613315565b5060408201516137c26040850182613315565b5060608201516137d560608501826137ee565b5060808201516137e86080850182613391565b50505050565b6137f7816140c6565b82525050565b613806816140c6565b82525050565b60006138188285613430565b91506138248284613430565b91508190509392505050565b60006020820190506138456000830184613324565b92915050565b60006080820190506138606000830187613324565b61386d6020830186613324565b61387a60408301856137fd565b61388760608301846133a0565b95945050505050565b60006080820190506138a56000830187613324565b6138b26020830186613324565b6138bf60408301856137fd565b81810360608301526138d181846133af565b905095945050505050565b60006060820190506138f16000830186613324565b6138fe60208301856133e8565b61390b60408301846133e8565b949350505050565b6000602082019050818103600083015261392d8184613333565b905092915050565b600060208201905061394a60008301846133a0565b92915050565b6000602082019050818103600083015261396a81846133f7565b905092915050565b6000602082019050818103600083015261398b81613461565b9050919050565b600060208201905081810360008301526139ab81613484565b9050919050565b600060208201905081810360008301526139cb816134a7565b9050919050565b600060208201905081810360008301526139eb816134ca565b9050919050565b60006020820190508181036000830152613a0b816134ed565b9050919050565b60006020820190508181036000830152613a2b81613510565b9050919050565b60006020820190508181036000830152613a4b81613533565b9050919050565b60006020820190508181036000830152613a6b81613556565b9050919050565b60006020820190508181036000830152613a8b81613579565b9050919050565b60006020820190508181036000830152613aab8161359c565b9050919050565b60006020820190508181036000830152613acb816135bf565b9050919050565b60006020820190508181036000830152613aeb816135e2565b9050919050565b60006020820190508181036000830152613b0b81613605565b9050919050565b60006020820190508181036000830152613b2b81613628565b9050919050565b60006020820190508181036000830152613b4b8161364b565b9050919050565b60006020820190508181036000830152613b6b8161366e565b9050919050565b60006020820190508181036000830152613b8b81613691565b9050919050565b60006020820190508181036000830152613bab816136b4565b9050919050565b60006020820190508181036000830152613bcb816136d7565b9050919050565b60006020820190508181036000830152613beb816136fa565b9050919050565b60006020820190508181036000830152613c0b8161371d565b9050919050565b60006020820190508181036000830152613c2b81613740565b9050919050565b60006020820190508181036000830152613c4b81613763565b9050919050565b6000602082019050613c6760008301846137fd565b92915050565b6000613c77613c88565b9050613c838282614156565b919050565b6000604051905090565b600067ffffffffffffffff821115613cad57613cac61428e565b5b613cb6826142bd565b9050602081019050919050565b600067ffffffffffffffff821115613cde57613cdd61428e565b5b613ce7826142bd565b9050602081019050919050565b6000819050602082019050919050565b600081519050919050565b600081519050919050565b600081519050919050565b6000602082019050919050565b600082825260208201905092915050565b600082825260208201905092915050565b600082825260208201905092915050565b600081905092915050565b6000613d7b826140c6565b9150613d86836140c6565b9250827fffffffffffffffffffffffffffffffffffffffffffffffffffffffffffffffff03821115613dbb57613dba614201565b5b828201905092915050565b6000613dd18261409c565b9150613ddc8361409c565b925082613dec57613deb614230565b5b600160000383147f800000000000000000000000000000000000000000000000000000000000000083141615613e2557613e24614201565b5b828205905092915050565b6000613e3b826140c6565b9150613e46836140c6565b925082613e5657613e55614230565b5b828204905092915050565b6000613e6c8261409c565b9150613e778361409c565b9250827f7fffffffffffffffffffffffffffffffffffffffffffffffffffffffffffffff0482116000841360008413161615613eb657613eb5614201565b5b817f80000000000000000000000000000000000000000000000000000000000000000583126000841260008413161615613ef357613ef2614201565b5b827f80000000000000000000000000000000000000000000000000000000000000000582126000841360008412161615613f3057613f2f614201565b5b827f7fffffffffffffffffffffffffffffffffffffffffffffffffffffffffffffff0582126000841260008412161615613f6d57613f6c614201565b5b828202905092915050565b6000613f838261409c565b9150613f8e8361409c565b9250827f800000000000000000000000000000000000000000000000000000000000000001821260008412151615613fc957613fc8614201565b5b827f7fffffffffffffffffffffffffffffffffffffffffffffffffffffffffffffff01821360008412161561400157614000614201565b5b828203905092915050565b6000614017826140c6565b9150614022836140c6565b92508282101561403557614034614201565b5b828203905092915050565b600061404b826140a6565b9050919050565b600061405d826140a6565b9050919050565b60008115159050919050565b60007fffffffff0000000000000000000000000000000000000000000000000000000082169050919050565b6000819050919050565b600073ffffffffffffffffffffffffffffffffffffffff82169050919050565b6000819050919050565b60006140db826140c6565b9050919050565b82818337600083830152505050565b60005b8381101561410f5780820151818401526020810190506140f4565b8381111561411e576000848401525b50505050565b6000600282049050600182168061413c57607f821691505b602082108114156141505761414f61425f565b5b50919050565b61415f826142bd565b810181811067ffffffffffffffff8211171561417e5761417d61428e565b5b80604052505050565b6000614192826140c6565b91507fffffffffffffffffffffffffffffffffffffffffffffffffffffffffffffffff8214156141c5576141c4614201565b5b600182019050919050565b60006141db826140c6565b91506141e6836140c6565b9250826141f6576141f5614230565b5b828206905092915050565b7f4e487b7100000000000000000000000000000000000000000000000000000000600052601160045260246000fd5b7f4e487b7100000000000000000000000000000000000000000000000000000000600052601260045260246000fd5b7f4e487b7100000000000000000000000000000000000000000000000000000000600052602260045260246000fd5b7f4e487b7100000000000000000000000000000000000000000000000000000000600052604160045260246000fd5b6000601f19601f8301169050919050565b7f4f6e6c79206f776e65722063616e2064656c6574650000000000000000000000600082015250565b7f436f756e7465723a2064656372656d656e74206f766572666c6f770000000000600082015250565b7f4552433732313a207472616e7366657220746f206e6f6e20455243373231526560008201527f63656976657220696d706c656d656e7465720000000000000000000000000000602082015250565b7f4552433732313a207472616e736665722066726f6d20696e636f72726563742060008201527f6f776e6572000000000000000000000000000000000000000000000000000000602082015250565b7f4552433732313a20746f6b656e20616c7265616479206d696e74656400000000600082015250565b7f4552433732313a207472616e7366657220746f20746865207a65726f2061646460008201527f7265737300000000000000000000000000000000000000000000000000000000602082015250565b7f4552433732313a20617070726f766520746f2063616c6c657200000000000000600082015250565b7f4552433732313a206f70657261746f7220717565727920666f72206e6f6e657860008201527f697374656e7420746f6b656e0000000000000000000000000000000000000000602082015250565b7f4552433732313a20617070726f76652063616c6c6572206973206e6f74206f7760008201527f6e6572206e6f7220617070726f76656420666f7220616c6c0000000000000000602082015250565b7f4552433732313a2062616c616e636520717565727920666f7220746865207a6560008201527f726f206164647265737300000000000000000000000000000000000000000000602082015250565b7f4552433732313a206f776e657220717565727920666f72206e6f6e657869737460008201527f656e7420746f6b656e0000000000000000000000000000000000000000000000602082015250565b7f45524337323155524953746f726167653a2055524920736574206f66206e6f6e60008201527f6578697374656e7420746f6b656e000000000000000000000000000000000000602082015250565b7f506c65617365207375626d6974207468652061736b696e67207072696365206960008201527f6e206f7264657220746f20636f6d706c65746520746865207075726368617365602082015250565b7f4552433732313a206d696e7420746f20746865207a65726f2061646472657373600082015250565b7f45524337323155524953746f726167653a2055524920717565727920666f722060008201527f6e6f6e6578697374656e7420746f6b656e000000000000000000000000000000602082015250565b7f4f6e6c79206974656d206f776e65722063616e20706572666f726d207468697360008201527f206f7065726174696f6e00000000000000000000000000000000000000000000602082015250565b7f4552433732313a20617070726f76656420717565727920666f72206e6f6e657860008201527f697374656e7420746f6b656e0000000000000000000000000000000000000000602082015250565b7f4552433732314d657461646174613a2055524920717565727920666f72206e6f60008201527f6e6578697374656e7420746f6b656e0000000000000000000000000000000000602082015250565b7f4552433732313a20617070726f76616c20746f2063757272656e74206f776e6560008201527f7200000000000000000000000000000000000000000000000000000000000000602082015250565b7f5072696365206d75737420626520657175616c20746f206c697374696e67207060008201527f7269636500000000000000000000000000000000000000000000000000000000602082015250565b7f4552433732313a207472616e736665722063616c6c6572206973206e6f74206f60008201527f776e6572206e6f7220617070726f766564000000000000000000000000000000602082015250565b7f4f6e6c79206d61726b6574706c616365206f776e65722063616e20757064617460008201527f65206c697374696e672070726963652e00000000000000000000000000000000602082015250565b7f5072696365206d757374206265206174206c6561737420312077656900000000600082015250565b61490c81614040565b811461491757600080fd5b50565b61492381614064565b811461492e57600080fd5b50565b61493a81614070565b811461494557600080fd5b50565b614951816140c6565b811461495c57600080fd5b5056fea264697066735822122039fe5ea39fd2258f160607c6093571bc00d2a100be7434906acbceb69d3af8b964736f6c63430008010033",
  "linkReferences": {},
  "deployedLinkReferences": {}
}